{
    "_format": "hh-sol-artifact-1",
    "contractName": "eVote",
    "sourceName": "contracts/eVote.sol",
    "abi": [
        {
            "inputs": [],
            "stateMutability": "nonpayable",
            "type": "constructor"
        },
        {
            "inputs": [
                {
                    "internalType": "string",
                    "name": "_name",
                    "type": "string"
                }
            ],
            "name": "addParticipant",
            "outputs": [],
            "stateMutability": "nonpayable",
            "type": "function"
        },
        {
            "inputs": [
                {
                    "internalType": "string",
                    "name": "_name",
                    "type": "string"
                }
            ],
            "name": "castVote",
            "outputs": [],
            "stateMutability": "nonpayable",
            "type": "function"
        },
        {
            "inputs": [
                {
                    "internalType": "string",
                    "name": "_name",
                    "type": "string"
                }
            ],
            "name": "getVoteCount",
            "outputs": [
                {
                    "internalType": "uint256",
                    "name": "",
                    "type": "uint256"
                }
            ],
            "stateMutability": "view",
            "type": "function"
        }
    ],
    "bytecode": "0x608060405234801561001057600080fd5b50336000806101000a81548173ffffffffffffffffffffffffffffffffffffffff021916908373ffffffffffffffffffffffffffffffffffffffff16021790555061009d604051806060016040528060278152602001610a9f6027913960008054906101000a900473ffffffffffffffffffffffffffffffffffffffff166100a260201b6102c21760201c565b610277565b61014082826040516024016100b89291906101b5565b6040516020818303038152906040527f319af333000000000000000000000000000000000000000000000000000000007bffffffffffffffffffffffffffffffffffffffffffffffffffffffff19166020820180517bffffffffffffffffffffffffffffffffffffffffffffffffffffffff838183161783525050505061014460201b60201c565b5050565b60008151905060006a636f6e736f6c652e6c6f679050602083016000808483855afa5050505050565b61017681610201565b82525050565b6000610187826101e5565b61019181856101f0565b93506101a1818560208601610233565b6101aa81610266565b840191505092915050565b600060408201905081810360008301526101cf818561017c565b90506101de602083018461016d565b9392505050565b600081519050919050565b600082825260208201905092915050565b600061020c82610213565b9050919050565b600073ffffffffffffffffffffffffffffffffffffffff82169050919050565b60005b83811015610251578082015181840152602081019050610236565b83811115610260576000848401525b50505050565b6000601f19601f8301169050919050565b610819806102866000396000f3fe608060405234801561001057600080fd5b50600436106100415760003560e01c8063069953a714610046578063364de8b6146100765780639cc2d99314610092575b600080fd5b610060600480360381019061005b91906103ef565b6100ae565b60405161006d9190610585565b60405180910390f35b610090600480360381019061008b91906103ef565b6100d6565b005b6100ac60048036038101906100a791906103ef565b6101a5565b005b60006003826040516100c091906104fe565b9081526020016040518091039020549050919050565b3373ffffffffffffffffffffffffffffffffffffffff1660008054906101000a900473ffffffffffffffffffffffffffffffffffffffff1673ffffffffffffffffffffffffffffffffffffffff1614610164576040517f08c379a000000000000000000000000000000000000000000000000000000000815260040161015b90610545565b60405180910390fd5b600060038260405161017691906104fe565b90815260200160405180910390208190555060016002600082825461019b919061061d565b9250508190555050565b600160003373ffffffffffffffffffffffffffffffffffffffff1673ffffffffffffffffffffffffffffffffffffffff16815260200190815260200160002060009054906101000a900460ff1615610232576040517f08c379a000000000000000000000000000000000000000000000000000000000815260040161022990610565565b60405180910390fd5b600160038260405161024491906104fe565b90815260200160405180910390206000828254610261919061061d565b9250508190555060018060003373ffffffffffffffffffffffffffffffffffffffff1673ffffffffffffffffffffffffffffffffffffffff16815260200190815260200160002060006101000a81548160ff02191690831515021790555050565b61035a82826040516024016102d8929190610515565b6040516020818303038152906040527f319af333000000000000000000000000000000000000000000000000000000007bffffffffffffffffffffffffffffffffffffffffffffffffffffffff19166020820180517bffffffffffffffffffffffffffffffffffffffffffffffffffffffff838183161783525050505061035e565b5050565b60008151905060006a636f6e736f6c652e6c6f679050602083016000808483855afa5050505050565b600061039a610395846105c5565b6105a0565b9050828152602081018484840111156103b257600080fd5b6103bd8482856106af565b509392505050565b600082601f8301126103d657600080fd5b81356103e6848260208601610387565b91505092915050565b60006020828403121561040157600080fd5b600082013567ffffffffffffffff81111561041b57600080fd5b610427848285016103c5565b91505092915050565b61043981610673565b82525050565b600061044a826105f6565b6104548185610601565b93506104648185602086016106be565b61046d81610780565b840191505092915050565b6000610483826105f6565b61048d8185610612565b935061049d8185602086016106be565b80840191505092915050565b60006104b6601683610601565b91506104c182610791565b602082019050919050565b60006104d9601283610601565b91506104e4826107ba565b602082019050919050565b6104f8816106a5565b82525050565b600061050a8284610478565b915081905092915050565b6000604082019050818103600083015261052f818561043f565b905061053e6020830184610430565b9392505050565b6000602082019050818103600083015261055e816104a9565b9050919050565b6000602082019050818103600083015261057e816104cc565b9050919050565b600060208201905061059a60008301846104ef565b92915050565b60006105aa6105bb565b90506105b682826106f1565b919050565b6000604051905090565b600067ffffffffffffffff8211156105e0576105df610751565b5b6105e982610780565b9050602081019050919050565b600081519050919050565b600082825260208201905092915050565b600081905092915050565b6000610628826106a5565b9150610633836106a5565b9250827fffffffffffffffffffffffffffffffffffffffffffffffffffffffffffffffff0382111561066857610667610722565b5b828201905092915050565b600061067e82610685565b9050919050565b600073ffffffffffffffffffffffffffffffffffffffff82169050919050565b6000819050919050565b82818337600083830152505050565b60005b838110156106dc5780820151818401526020810190506106c1565b838111156106eb576000848401525b50505050565b6106fa82610780565b810181811067ffffffffffffffff8211171561071957610718610751565b5b80604052505050565b7f4e487b7100000000000000000000000000000000000000000000000000000000600052601160045260246000fd5b7f4e487b7100000000000000000000000000000000000000000000000000000000600052604160045260246000fd5b6000601f19601f8301169050919050565b7f596f7520617265206e6f7420746865206f776e65722100000000000000000000600082015250565b7f596f7520616c726561647920766f74656421000000000000000000000000000060008201525056fea2646970667358221220140b7242cc2ebf7903437638fac352369dfa329ca627709ccee4ead30e8c373364736f6c634300080400334920616d20746865206f776e6572206f66207468697320736d61727420636f6e74726163743a20",
    "linkReferences": {},
    "deployedLinkReferences": {}
}